{
  "contractName": "Token",
  "abi": [
    {
      "inputs": [
        {
          "internalType": "string",
          "name": "name",
          "type": "string"
        },
        {
          "internalType": "string",
          "name": "symbol",
          "type": "string"
        }
      ],
      "stateMutability": "nonpayable",
      "type": "constructor"
    },
    {
      "anonymous": false,
      "inputs": [
        {
          "indexed": true,
          "internalType": "address",
          "name": "owner",
          "type": "address"
        },
        {
          "indexed": true,
          "internalType": "address",
          "name": "approved",
          "type": "address"
        },
        {
          "indexed": true,
          "internalType": "uint256",
          "name": "tokenId",
          "type": "uint256"
        }
      ],
      "name": "Approval",
      "type": "event"
    },
    {
      "anonymous": false,
      "inputs": [
        {
          "indexed": true,
          "internalType": "address",
          "name": "owner",
          "type": "address"
        },
        {
          "indexed": true,
          "internalType": "address",
          "name": "operator",
          "type": "address"
        },
        {
          "indexed": false,
          "internalType": "bool",
          "name": "approved",
          "type": "bool"
        }
      ],
      "name": "ApprovalForAll",
      "type": "event"
    },
    {
      "anonymous": false,
      "inputs": [
        {
          "indexed": true,
          "internalType": "address",
          "name": "previousOwner",
          "type": "address"
        },
        {
          "indexed": true,
          "internalType": "address",
          "name": "newOwner",
          "type": "address"
        }
      ],
      "name": "OwnershipTransferred",
      "type": "event"
    },
    {
      "anonymous": false,
      "inputs": [
        {
          "indexed": true,
          "internalType": "address",
          "name": "from",
          "type": "address"
        },
        {
          "indexed": true,
          "internalType": "address",
          "name": "to",
          "type": "address"
        },
        {
          "indexed": true,
          "internalType": "uint256",
          "name": "tokenId",
          "type": "uint256"
        }
      ],
      "name": "Transfer",
      "type": "event"
    },
    {
      "inputs": [
        {
          "internalType": "address",
          "name": "to",
          "type": "address"
        },
        {
          "internalType": "uint256",
          "name": "tokenId",
          "type": "uint256"
        }
      ],
      "name": "approve",
      "outputs": [],
      "stateMutability": "nonpayable",
      "type": "function"
    },
    {
      "inputs": [
        {
          "internalType": "address",
          "name": "owner",
          "type": "address"
        }
      ],
      "name": "balanceOf",
      "outputs": [
        {
          "internalType": "uint256",
          "name": "",
          "type": "uint256"
        }
      ],
      "stateMutability": "view",
      "type": "function",
      "constant": true
    },
    {
      "inputs": [
        {
          "internalType": "uint256",
          "name": "tokenId",
          "type": "uint256"
        }
      ],
      "name": "getApproved",
      "outputs": [
        {
          "internalType": "address",
          "name": "",
          "type": "address"
        }
      ],
      "stateMutability": "view",
      "type": "function",
      "constant": true
    },
    {
      "inputs": [
        {
          "internalType": "address",
          "name": "owner",
          "type": "address"
        },
        {
          "internalType": "address",
          "name": "operator",
          "type": "address"
        }
      ],
      "name": "isApprovedForAll",
      "outputs": [
        {
          "internalType": "bool",
          "name": "",
          "type": "bool"
        }
      ],
      "stateMutability": "view",
      "type": "function",
      "constant": true
    },
    {
      "inputs": [],
      "name": "name",
      "outputs": [
        {
          "internalType": "string",
          "name": "",
          "type": "string"
        }
      ],
      "stateMutability": "view",
      "type": "function",
      "constant": true
    },
    {
      "inputs": [],
      "name": "owner",
      "outputs": [
        {
          "internalType": "address",
          "name": "",
          "type": "address"
        }
      ],
      "stateMutability": "view",
      "type": "function",
      "constant": true
    },
    {
      "inputs": [
        {
          "internalType": "uint256",
          "name": "tokenId",
          "type": "uint256"
        }
      ],
      "name": "ownerOf",
      "outputs": [
        {
          "internalType": "address",
          "name": "",
          "type": "address"
        }
      ],
      "stateMutability": "view",
      "type": "function",
      "constant": true
    },
    {
      "inputs": [],
      "name": "renounceOwnership",
      "outputs": [],
      "stateMutability": "nonpayable",
      "type": "function"
    },
    {
      "inputs": [
        {
          "internalType": "address",
          "name": "from",
          "type": "address"
        },
        {
          "internalType": "address",
          "name": "to",
          "type": "address"
        },
        {
          "internalType": "uint256",
          "name": "tokenId",
          "type": "uint256"
        }
      ],
      "name": "safeTransferFrom",
      "outputs": [],
      "stateMutability": "nonpayable",
      "type": "function"
    },
    {
      "inputs": [
        {
          "internalType": "address",
          "name": "from",
          "type": "address"
        },
        {
          "internalType": "address",
          "name": "to",
          "type": "address"
        },
        {
          "internalType": "uint256",
          "name": "tokenId",
          "type": "uint256"
        },
        {
          "internalType": "bytes",
          "name": "_data",
          "type": "bytes"
        }
      ],
      "name": "safeTransferFrom",
      "outputs": [],
      "stateMutability": "nonpayable",
      "type": "function"
    },
    {
      "inputs": [
        {
          "internalType": "address",
          "name": "operator",
          "type": "address"
        },
        {
          "internalType": "bool",
          "name": "approved",
          "type": "bool"
        }
      ],
      "name": "setApprovalForAll",
      "outputs": [],
      "stateMutability": "nonpayable",
      "type": "function"
    },
    {
      "inputs": [
        {
          "internalType": "bytes4",
          "name": "interfaceId",
          "type": "bytes4"
        }
      ],
      "name": "supportsInterface",
      "outputs": [
        {
          "internalType": "bool",
          "name": "",
          "type": "bool"
        }
      ],
      "stateMutability": "view",
      "type": "function",
      "constant": true
    },
    {
      "inputs": [],
      "name": "symbol",
      "outputs": [
        {
          "internalType": "string",
          "name": "",
          "type": "string"
        }
      ],
      "stateMutability": "view",
      "type": "function",
      "constant": true
    },
    {
      "inputs": [
        {
          "internalType": "uint256",
          "name": "tokenId",
          "type": "uint256"
        }
      ],
      "name": "tokenURI",
      "outputs": [
        {
          "internalType": "string",
          "name": "",
          "type": "string"
        }
      ],
      "stateMutability": "view",
      "type": "function",
      "constant": true
    },
    {
      "inputs": [
        {
          "internalType": "address",
          "name": "from",
          "type": "address"
        },
        {
          "internalType": "address",
          "name": "to",
          "type": "address"
        },
        {
          "internalType": "uint256",
          "name": "tokenId",
          "type": "uint256"
        }
      ],
      "name": "transferFrom",
      "outputs": [],
      "stateMutability": "nonpayable",
      "type": "function"
    },
    {
      "inputs": [
        {
          "internalType": "address",
          "name": "newOwner",
          "type": "address"
        }
      ],
      "name": "transferOwnership",
      "outputs": [],
      "stateMutability": "nonpayable",
      "type": "function"
    },
    {
      "inputs": [
        {
          "internalType": "uint256",
          "name": "tokenId",
          "type": "uint256"
        }
      ],
      "name": "getTokenDetails",
      "outputs": [
        {
          "components": [
            {
              "internalType": "uint8",
              "name": "damage",
              "type": "uint8"
            },
            {
              "internalType": "uint8",
              "name": "magic",
              "type": "uint8"
            },
            {
              "internalType": "uint256",
              "name": "lastMeal",
              "type": "uint256"
            },
            {
              "internalType": "uint256",
              "name": "endurance",
              "type": "uint256"
            }
          ],
          "internalType": "struct Token.Pet",
          "name": "",
          "type": "tuple"
        }
      ],
      "stateMutability": "view",
      "type": "function",
      "constant": true
    },
    {
      "inputs": [
        {
          "internalType": "uint8",
          "name": "damage",
          "type": "uint8"
        },
        {
          "internalType": "uint8",
          "name": "magic",
          "type": "uint8"
        },
        {
          "internalType": "uint256",
          "name": "endurance",
          "type": "uint256"
        }
      ],
      "name": "mint",
      "outputs": [],
      "stateMutability": "nonpayable",
      "type": "function"
    },
    {
      "inputs": [
        {
          "internalType": "uint256",
          "name": "tokenId",
          "type": "uint256"
        }
      ],
      "name": "feed",
      "outputs": [],
      "stateMutability": "nonpayable",
      "type": "function"
    },
    {
      "inputs": [
        {
          "internalType": "address",
          "name": "user",
          "type": "address"
        }
      ],
      "name": "getAllTokensForUser",
      "outputs": [
        {
          "internalType": "uint256[]",
          "name": "",
          "type": "uint256[]"
        }
      ],
      "stateMutability": "view",
      "type": "function",
      "constant": true
    }
  ],
  "bytecode": "0x608060405260006007553480156200001657600080fd5b50604051620034cf380380620034cf83398181016040528101906200003c91906200028a565b818181600090805190602001906200005692919062000168565b5080600190805190602001906200006f92919062000168565b50505062000092620000866200009a60201b60201c565b620000a260201b60201c565b50506200042e565b600033905090565b6000600660009054906101000a900473ffffffffffffffffffffffffffffffffffffffff16905081600660006101000a81548173ffffffffffffffffffffffffffffffffffffffff021916908373ffffffffffffffffffffffffffffffffffffffff1602179055508173ffffffffffffffffffffffffffffffffffffffff168173ffffffffffffffffffffffffffffffffffffffff167f8be0079c531659141344cd1fd0a4f28419497f9722a3daafe3b4186f6b6457e060405160405180910390a35050565b82805462000176906200039a565b90600052602060002090601f0160209004810192826200019a5760008555620001e6565b82601f10620001b557805160ff1916838001178555620001e6565b82800160010185558215620001e6579182015b82811115620001e5578251825591602001919060010190620001c8565b5b509050620001f59190620001f9565b5090565b5b8082111562000214576000816000905550600101620001fa565b5090565b60006200022f620002298462000331565b620002fd565b9050828152602081018484840111156200024857600080fd5b6200025584828562000364565b509392505050565b600082601f8301126200026f57600080fd5b81516200028184826020860162000218565b91505092915050565b600080604083850312156200029e57600080fd5b600083015167ffffffffffffffff811115620002b957600080fd5b620002c7858286016200025d565b925050602083015167ffffffffffffffff811115620002e557600080fd5b620002f3858286016200025d565b9150509250929050565b6000604051905081810181811067ffffffffffffffff82111715620003275762000326620003ff565b5b8060405250919050565b600067ffffffffffffffff8211156200034f576200034e620003ff565b5b601f19601f8301169050602081019050919050565b60005b838110156200038457808201518184015260208101905062000367565b8381111562000394576000848401525b50505050565b60006002820490506001821680620003b357607f821691505b60208210811415620003ca57620003c9620003d0565b5b50919050565b7f4e487b7100000000000000000000000000000000000000000000000000000000600052602260045260246000fd5b7f4e487b7100000000000000000000000000000000000000000000000000000000600052604160045260246000fd5b613091806200043e6000396000f3fe608060405234801561001057600080fd5b506004361061012c5760003560e01c80638da5cb5b116100ad578063c87b56dd11610071578063c87b56dd14610341578063e985e9c514610371578063eb22ed32146103a1578063f2fde38b146103bd578063f59dfdfb146103d95761012c565b80638da5cb5b1461029d57806395d89b41146102bb578063a22cb465146102d9578063b88d4fde146102f5578063c1e03728146103115761012c565b806342842e0e116100f457806342842e0e146101e75780636352211e1461020357806370a0823114610233578063715018a61461026357806382de8fe91461026d5761012c565b806301ffc9a71461013157806306fdde0314610161578063081812fc1461017f578063095ea7b3146101af57806323b872dd146101cb575b600080fd5b61014b600480360381019061014691906120a9565b6103f5565b60405161015891906129a1565b60405180910390f35b6101696104d7565b60405161017691906129bc565b60405180910390f35b610199600480360381019061019491906120fb565b610569565b6040516101a69190612918565b60405180910390f35b6101c960048036038101906101c4919061206d565b6105ee565b005b6101e560048036038101906101e09190611f67565b610706565b005b61020160048036038101906101fc9190611f67565b610766565b005b61021d600480360381019061021891906120fb565b610786565b60405161022a9190612918565b60405180910390f35b61024d60048036038101906102489190611f02565b610838565b60405161025a9190612bf9565b60405180910390f35b61026b6108f0565b005b61028760048036038101906102829190611f02565b610978565b604051610294919061297f565b60405180910390f35b6102a5610b40565b6040516102b29190612918565b60405180910390f35b6102c3610b6a565b6040516102d091906129bc565b60405180910390f35b6102f360048036038101906102ee9190612031565b610bfc565b005b61030f600480360381019061030a9190611fb6565b610d7d565b005b61032b600480360381019061032691906120fb565b610ddf565b6040516103389190612bde565b60405180910390f35b61035b600480360381019061035691906120fb565b610e5a565b60405161036891906129bc565b60405180910390f35b61038b60048036038101906103869190611f2b565b610f01565b60405161039891906129a1565b60405180910390f35b6103bb60048036038101906103b69190612124565b610f95565b005b6103d760048036038101906103d29190611f02565b6110cf565b005b6103f360048036038101906103ee91906120fb565b6111c7565b005b60007f80ac58cd000000000000000000000000000000000000000000000000000000007bffffffffffffffffffffffffffffffffffffffffffffffffffffffff1916827bffffffffffffffffffffffffffffffffffffffffffffffffffffffff191614806104c057507f5b5e139f000000000000000000000000000000000000000000000000000000007bffffffffffffffffffffffffffffffffffffffffffffffffffffffff1916827bffffffffffffffffffffffffffffffffffffffffffffffffffffffff1916145b806104d057506104cf8261120a565b5b9050919050565b6060600080546104e690612e6f565b80601f016020809104026020016040519081016040528092919081815260200182805461051290612e6f565b801561055f5780601f106105345761010080835404028352916020019161055f565b820191906000526020600020905b81548152906001019060200180831161054257829003601f168201915b5050505050905090565b600061057482611274565b6105b3576040517f08c379a00000000000000000000000000000000000000000000000000000000081526004016105aa90612b1e565b60405180910390fd5b6004600083815260200190815260200160002060009054906101000a900473ffffffffffffffffffffffffffffffffffffffff169050919050565b60006105f982610786565b90508073ffffffffffffffffffffffffffffffffffffffff168373ffffffffffffffffffffffffffffffffffffffff16141561066a576040517f08c379a000000000000000000000000000000000000000000000000000000000815260040161066190612b9e565b60405180910390fd5b8073ffffffffffffffffffffffffffffffffffffffff166106896112e0565b73ffffffffffffffffffffffffffffffffffffffff1614806106b857506106b7816106b26112e0565b610f01565b5b6106f7576040517f08c379a00000000000000000000000000000000000000000000000000000000081526004016106ee90612a9e565b60405180910390fd5b61070183836112e8565b505050565b6107176107116112e0565b826113a1565b610756576040517f08c379a000000000000000000000000000000000000000000000000000000000815260040161074d90612bbe565b60405180910390fd5b61076183838361147f565b505050565b61078183838360405180602001604052806000815250610d7d565b505050565b6000806002600084815260200190815260200160002060009054906101000a900473ffffffffffffffffffffffffffffffffffffffff169050600073ffffffffffffffffffffffffffffffffffffffff168173ffffffffffffffffffffffffffffffffffffffff16141561082f576040517f08c379a000000000000000000000000000000000000000000000000000000000815260040161082690612ade565b60405180910390fd5b80915050919050565b60008073ffffffffffffffffffffffffffffffffffffffff168273ffffffffffffffffffffffffffffffffffffffff1614156108a9576040517f08c379a00000000000000000000000000000000000000000000000000000000081526004016108a090612abe565b60405180910390fd5b600360008373ffffffffffffffffffffffffffffffffffffffff1673ffffffffffffffffffffffffffffffffffffffff168152602001908152602001600020549050919050565b6108f86112e0565b73ffffffffffffffffffffffffffffffffffffffff16610916610b40565b73ffffffffffffffffffffffffffffffffffffffff161461096c576040517f08c379a000000000000000000000000000000000000000000000000000000000815260040161096390612b3e565b60405180910390fd5b61097660006116db565b565b6060600061098583610838565b90506000811415610a0857600067ffffffffffffffff8111156109d1577f4e487b7100000000000000000000000000000000000000000000000000000000600052604160045260246000fd5b6040519080825280602002602001820160405280156109ff5781602001602082028036833780820191505090505b50915050610b3b565b60008167ffffffffffffffff811115610a4a577f4e487b7100000000000000000000000000000000000000000000000000000000600052604160045260246000fd5b604051908082528060200260200182016040528015610a785781602001602082028036833780820191505090505b509050600060075490506000805b82811015610b32578673ffffffffffffffffffffffffffffffffffffffff16610aae82610786565b73ffffffffffffffffffffffffffffffffffffffff161415610b1f5780848381518110610b04577f4e487b7100000000000000000000000000000000000000000000000000000000600052603260045260246000fd5b6020026020010181815250508180610b1b90612ea1565b9250505b8080610b2a90612ea1565b915050610a86565b83955050505050505b919050565b6000600660009054906101000a900473ffffffffffffffffffffffffffffffffffffffff16905090565b606060018054610b7990612e6f565b80601f0160208091040260200160405190810160405280929190818152602001828054610ba590612e6f565b8015610bf25780601f10610bc757610100808354040283529160200191610bf2565b820191906000526020600020905b815481529060010190602001808311610bd557829003601f168201915b5050505050905090565b610c046112e0565b73ffffffffffffffffffffffffffffffffffffffff168273ffffffffffffffffffffffffffffffffffffffff161415610c72576040517f08c379a0000000000000000000000000000000000000000000000000000000008152600401610c6990612a5e565b60405180910390fd5b8060056000610c7f6112e0565b73ffffffffffffffffffffffffffffffffffffffff1673ffffffffffffffffffffffffffffffffffffffff16815260200190815260200160002060008473ffffffffffffffffffffffffffffffffffffffff1673ffffffffffffffffffffffffffffffffffffffff16815260200190815260200160002060006101000a81548160ff0219169083151502179055508173ffffffffffffffffffffffffffffffffffffffff16610d2c6112e0565b73ffffffffffffffffffffffffffffffffffffffff167f17307eab39ab6107e8899845ad3d59bd9653f200f220920489ca2b5937696c3183604051610d7191906129a1565b60405180910390a35050565b610d8e610d886112e0565b836113a1565b610dcd576040517f08c379a0000000000000000000000000000000000000000000000000000000008152600401610dc490612bbe565b60405180910390fd5b610dd9848484846117a1565b50505050565b610de7611dee565b600860008381526020019081526020016000206040518060800160405290816000820160009054906101000a900460ff1660ff1660ff1681526020016000820160019054906101000a900460ff1660ff1660ff168152602001600182015481526020016002820154815250509050919050565b6060610e6582611274565b610ea4576040517f08c379a0000000000000000000000000000000000000000000000000000000008152600401610e9b90612b7e565b60405180910390fd5b6000610eae6117fd565b90506000815111610ece5760405180602001604052806000815250610ef9565b80610ed884611814565b604051602001610ee99291906128f4565b6040516020818303038152906040525b915050919050565b6000600560008473ffffffffffffffffffffffffffffffffffffffff1673ffffffffffffffffffffffffffffffffffffffff16815260200190815260200160002060008373ffffffffffffffffffffffffffffffffffffffff1673ffffffffffffffffffffffffffffffffffffffff16815260200190815260200160002060009054906101000a900460ff16905092915050565b610f9d6112e0565b73ffffffffffffffffffffffffffffffffffffffff16610fbb610b40565b73ffffffffffffffffffffffffffffffffffffffff1614611011576040517f08c379a000000000000000000000000000000000000000000000000000000000815260040161100890612b3e565b60405180910390fd5b60405180608001604052808460ff1681526020018360ff1681526020014281526020018281525060086000600754815260200190815260200160002060008201518160000160006101000a81548160ff021916908360ff16021790555060208201518160000160016101000a81548160ff021916908360ff16021790555060408201518160010155606082015181600201559050506110b2336007546119c1565b600760008154809291906110c590612ea1565b9190505550505050565b6110d76112e0565b73ffffffffffffffffffffffffffffffffffffffff166110f5610b40565b73ffffffffffffffffffffffffffffffffffffffff161461114b576040517f08c379a000000000000000000000000000000000000000000000000000000000815260040161114290612b3e565b60405180910390fd5b600073ffffffffffffffffffffffffffffffffffffffff168173ffffffffffffffffffffffffffffffffffffffff1614156111bb576040517f08c379a00000000000000000000000000000000000000000000000000000000081526004016111b2906129fe565b60405180910390fd5b6111c4816116db565b50565b600060086000838152602001908152602001600020905042816002015482600101546111f39190612cf1565b116111fd57600080fd5b4281600101819055505050565b60007f01ffc9a7000000000000000000000000000000000000000000000000000000007bffffffffffffffffffffffffffffffffffffffffffffffffffffffff1916827bffffffffffffffffffffffffffffffffffffffffffffffffffffffff1916149050919050565b60008073ffffffffffffffffffffffffffffffffffffffff166002600084815260200190815260200160002060009054906101000a900473ffffffffffffffffffffffffffffffffffffffff1673ffffffffffffffffffffffffffffffffffffffff1614159050919050565b600033905090565b816004600083815260200190815260200160002060006101000a81548173ffffffffffffffffffffffffffffffffffffffff021916908373ffffffffffffffffffffffffffffffffffffffff160217905550808273ffffffffffffffffffffffffffffffffffffffff1661135b83610786565b73ffffffffffffffffffffffffffffffffffffffff167f8c5be1e5ebec7d5bd14f71427d1e84f3dd0314c0f7b2291e5b200ac8c7c3b92560405160405180910390a45050565b60006113ac82611274565b6113eb576040517f08c379a00000000000000000000000000000000000000000000000000000000081526004016113e290612a7e565b60405180910390fd5b60006113f683610786565b90508073ffffffffffffffffffffffffffffffffffffffff168473ffffffffffffffffffffffffffffffffffffffff16148061146557508373ffffffffffffffffffffffffffffffffffffffff1661144d84610569565b73ffffffffffffffffffffffffffffffffffffffff16145b8061147657506114758185610f01565b5b91505092915050565b8273ffffffffffffffffffffffffffffffffffffffff1661149f82610786565b73ffffffffffffffffffffffffffffffffffffffff16146114f5576040517f08c379a00000000000000000000000000000000000000000000000000000000081526004016114ec90612b5e565b60405180910390fd5b600073ffffffffffffffffffffffffffffffffffffffff168273ffffffffffffffffffffffffffffffffffffffff161415611565576040517f08c379a000000000000000000000000000000000000000000000000000000000815260040161155c90612a3e565b60405180910390fd5b6115708383836119df565b61157b6000826112e8565b6001600360008573ffffffffffffffffffffffffffffffffffffffff1673ffffffffffffffffffffffffffffffffffffffff16815260200190815260200160002060008282546115cb9190612d78565b925050819055506001600360008473ffffffffffffffffffffffffffffffffffffffff1673ffffffffffffffffffffffffffffffffffffffff16815260200190815260200160002060008282546116229190612cf1565b92505081905550816002600083815260200190815260200160002060006101000a81548173ffffffffffffffffffffffffffffffffffffffff021916908373ffffffffffffffffffffffffffffffffffffffff160217905550808273ffffffffffffffffffffffffffffffffffffffff168473ffffffffffffffffffffffffffffffffffffffff167fddf252ad1be2c89b69c2b068fc378daa952ba7f163c4a11628f55a4df523b3ef60405160405180910390a4505050565b6000600660009054906101000a900473ffffffffffffffffffffffffffffffffffffffff16905081600660006101000a81548173ffffffffffffffffffffffffffffffffffffffff021916908373ffffffffffffffffffffffffffffffffffffffff1602179055508173ffffffffffffffffffffffffffffffffffffffff168173ffffffffffffffffffffffffffffffffffffffff167f8be0079c531659141344cd1fd0a4f28419497f9722a3daafe3b4186f6b6457e060405160405180910390a35050565b6117ac84848461147f565b6117b884848484611a1b565b6117f7576040517f08c379a00000000000000000000000000000000000000000000000000000000081526004016117ee906129de565b60405180910390fd5b50505050565b606060405180602001604052806000815250905090565b6060600082141561185c576040518060400160405280600181526020017f300000000000000000000000000000000000000000000000000000000000000081525090506119bc565b600082905060005b6000821461188e57808061187790612ea1565b915050600a826118879190612d47565b9150611864565b60008167ffffffffffffffff8111156118d0577f4e487b7100000000000000000000000000000000000000000000000000000000600052604160045260246000fd5b6040519080825280601f01601f1916602001820160405280156119025781602001600182028036833780820191505090505b5090505b600085146119b55760018261191b9190612d78565b9150600a8561192a9190612eea565b60306119369190612cf1565b60f81b818381518110611972577f4e487b7100000000000000000000000000000000000000000000000000000000600052603260045260246000fd5b60200101907effffffffffffffffffffffffffffffffffffffffffffffffffffffffffffff1916908160001a905350600a856119ae9190612d47565b9450611906565b8093505050505b919050565b6119db828260405180602001604052806000815250611bb2565b5050565b60006008600083815260200190815260200160002090504281600201548260010154611a0b9190612cf1565b11611a1557600080fd5b50505050565b6000611a3c8473ffffffffffffffffffffffffffffffffffffffff16611c0d565b15611ba5578373ffffffffffffffffffffffffffffffffffffffff1663150b7a02611a656112e0565b8786866040518563ffffffff1660e01b8152600401611a879493929190612933565b602060405180830381600087803b158015611aa157600080fd5b505af1925050508015611ad257506040513d601f19601f82011682018060405250810190611acf91906120d2565b60015b611b55573d8060008114611b02576040519150601f19603f3d011682016040523d82523d6000602084013e611b07565b606091505b50600081511415611b4d576040517f08c379a0000000000000000000000000000000000000000000000000000000008152600401611b44906129de565b60405180910390fd5b805181602001fd5b63150b7a0260e01b7bffffffffffffffffffffffffffffffffffffffffffffffffffffffff1916817bffffffffffffffffffffffffffffffffffffffffffffffffffffffff191614915050611baa565b600190505b949350505050565b611bbc8383611c20565b611bc96000848484611a1b565b611c08576040517f08c379a0000000000000000000000000000000000000000000000000000000008152600401611bff906129de565b60405180910390fd5b505050565b600080823b905060008111915050919050565b600073ffffffffffffffffffffffffffffffffffffffff168273ffffffffffffffffffffffffffffffffffffffff161415611c90576040517f08c379a0000000000000000000000000000000000000000000000000000000008152600401611c8790612afe565b60405180910390fd5b611c9981611274565b15611cd9576040517f08c379a0000000000000000000000000000000000000000000000000000000008152600401611cd090612a1e565b60405180910390fd5b611ce5600083836119df565b6001600360008473ffffffffffffffffffffffffffffffffffffffff1673ffffffffffffffffffffffffffffffffffffffff1681526020019081526020016000206000828254611d359190612cf1565b92505081905550816002600083815260200190815260200160002060006101000a81548173ffffffffffffffffffffffffffffffffffffffff021916908373ffffffffffffffffffffffffffffffffffffffff160217905550808273ffffffffffffffffffffffffffffffffffffffff16600073ffffffffffffffffffffffffffffffffffffffff167fddf252ad1be2c89b69c2b068fc378daa952ba7f163c4a11628f55a4df523b3ef60405160405180910390a45050565b6040518060800160405280600060ff168152602001600060ff16815260200160008152602001600081525090565b6000611e2f611e2a84612c45565b612c14565b905082815260208101848484011115611e4757600080fd5b611e52848285612e2d565b509392505050565b600081359050611e6981612fe8565b92915050565b600081359050611e7e81612fff565b92915050565b600081359050611e9381613016565b92915050565b600081519050611ea881613016565b92915050565b600082601f830112611ebf57600080fd5b8135611ecf848260208601611e1c565b91505092915050565b600081359050611ee78161302d565b92915050565b600081359050611efc81613044565b92915050565b600060208284031215611f1457600080fd5b6000611f2284828501611e5a565b91505092915050565b60008060408385031215611f3e57600080fd5b6000611f4c85828601611e5a565b9250506020611f5d85828601611e5a565b9150509250929050565b600080600060608486031215611f7c57600080fd5b6000611f8a86828701611e5a565b9350506020611f9b86828701611e5a565b9250506040611fac86828701611ed8565b9150509250925092565b60008060008060808587031215611fcc57600080fd5b6000611fda87828801611e5a565b9450506020611feb87828801611e5a565b9350506040611ffc87828801611ed8565b925050606085013567ffffffffffffffff81111561201957600080fd5b61202587828801611eae565b91505092959194509250565b6000806040838503121561204457600080fd5b600061205285828601611e5a565b925050602061206385828601611e6f565b9150509250929050565b6000806040838503121561208057600080fd5b600061208e85828601611e5a565b925050602061209f85828601611ed8565b9150509250929050565b6000602082840312156120bb57600080fd5b60006120c984828501611e84565b91505092915050565b6000602082840312156120e457600080fd5b60006120f284828501611e99565b91505092915050565b60006020828403121561210d57600080fd5b600061211b84828501611ed8565b91505092915050565b60008060006060848603121561213957600080fd5b600061214786828701611eed565b935050602061215886828701611eed565b925050604061216986828701611ed8565b9150509250925092565b600061217f83836128c7565b60208301905092915050565b61219481612dac565b82525050565b60006121a582612c85565b6121af8185612cb3565b93506121ba83612c75565b8060005b838110156121eb5781516121d28882612173565b97506121dd83612ca6565b9250506001810190506121be565b5085935050505092915050565b61220181612dbe565b82525050565b600061221282612c90565b61221c8185612cc4565b935061222c818560208601612e3c565b61223581612fd7565b840191505092915050565b600061224b82612c9b565b6122558185612cd5565b9350612265818560208601612e3c565b61226e81612fd7565b840191505092915050565b600061228482612c9b565b61228e8185612ce6565b935061229e818560208601612e3c565b80840191505092915050565b60006122b7603283612cd5565b91507f4552433732313a207472616e7366657220746f206e6f6e20455243373231526560008301527f63656976657220696d706c656d656e74657200000000000000000000000000006020830152604082019050919050565b600061231d602683612cd5565b91507f4f776e61626c653a206e6577206f776e657220697320746865207a65726f206160008301527f64647265737300000000000000000000000000000000000000000000000000006020830152604082019050919050565b6000612383601c83612cd5565b91507f4552433732313a20746f6b656e20616c7265616479206d696e746564000000006000830152602082019050919050565b60006123c3602483612cd5565b91507f4552433732313a207472616e7366657220746f20746865207a65726f2061646460008301527f72657373000000000000000000000000000000000000000000000000000000006020830152604082019050919050565b6000612429601983612cd5565b91507f4552433732313a20617070726f766520746f2063616c6c6572000000000000006000830152602082019050919050565b6000612469602c83612cd5565b91507f4552433732313a206f70657261746f7220717565727920666f72206e6f6e657860008301527f697374656e7420746f6b656e00000000000000000000000000000000000000006020830152604082019050919050565b60006124cf603883612cd5565b91507f4552433732313a20617070726f76652063616c6c6572206973206e6f74206f7760008301527f6e6572206e6f7220617070726f76656420666f7220616c6c00000000000000006020830152604082019050919050565b6000612535602a83612cd5565b91507f4552433732313a2062616c616e636520717565727920666f7220746865207a6560008301527f726f2061646472657373000000000000000000000000000000000000000000006020830152604082019050919050565b600061259b602983612cd5565b91507f4552433732313a206f776e657220717565727920666f72206e6f6e657869737460008301527f656e7420746f6b656e00000000000000000000000000000000000000000000006020830152604082019050919050565b6000612601602083612cd5565b91507f4552433732313a206d696e7420746f20746865207a65726f20616464726573736000830152602082019050919050565b6000612641602c83612cd5565b91507f4552433732313a20617070726f76656420717565727920666f72206e6f6e657860008301527f697374656e7420746f6b656e00000000000000000000000000000000000000006020830152604082019050919050565b60006126a7602083612cd5565b91507f4f776e61626c653a2063616c6c6572206973206e6f7420746865206f776e65726000830152602082019050919050565b60006126e7602983612cd5565b91507f4552433732313a207472616e73666572206f6620746f6b656e2074686174206960008301527f73206e6f74206f776e00000000000000000000000000000000000000000000006020830152604082019050919050565b600061274d602f83612cd5565b91507f4552433732314d657461646174613a2055524920717565727920666f72206e6f60008301527f6e6578697374656e7420746f6b656e00000000000000000000000000000000006020830152604082019050919050565b60006127b3602183612cd5565b91507f4552433732313a20617070726f76616c20746f2063757272656e74206f776e6560008301527f72000000000000000000000000000000000000000000000000000000000000006020830152604082019050919050565b6000612819603183612cd5565b91507f4552433732313a207472616e736665722063616c6c6572206973206e6f74206f60008301527f776e6572206e6f7220617070726f7665640000000000000000000000000000006020830152604082019050919050565b60808201600082015161288860008501826128e5565b50602082015161289b60208501826128e5565b5060408201516128ae60408501826128c7565b5060608201516128c160608501826128c7565b50505050565b6128d081612e16565b82525050565b6128df81612e16565b82525050565b6128ee81612e20565b82525050565b60006129008285612279565b915061290c8284612279565b91508190509392505050565b600060208201905061292d600083018461218b565b92915050565b6000608082019050612948600083018761218b565b612955602083018661218b565b61296260408301856128d6565b81810360608301526129748184612207565b905095945050505050565b60006020820190508181036000830152612999818461219a565b905092915050565b60006020820190506129b660008301846121f8565b92915050565b600060208201905081810360008301526129d68184612240565b905092915050565b600060208201905081810360008301526129f7816122aa565b9050919050565b60006020820190508181036000830152612a1781612310565b9050919050565b60006020820190508181036000830152612a3781612376565b9050919050565b60006020820190508181036000830152612a57816123b6565b9050919050565b60006020820190508181036000830152612a778161241c565b9050919050565b60006020820190508181036000830152612a978161245c565b9050919050565b60006020820190508181036000830152612ab7816124c2565b9050919050565b60006020820190508181036000830152612ad781612528565b9050919050565b60006020820190508181036000830152612af78161258e565b9050919050565b60006020820190508181036000830152612b17816125f4565b9050919050565b60006020820190508181036000830152612b3781612634565b9050919050565b60006020820190508181036000830152612b578161269a565b9050919050565b60006020820190508181036000830152612b77816126da565b9050919050565b60006020820190508181036000830152612b9781612740565b9050919050565b60006020820190508181036000830152612bb7816127a6565b9050919050565b60006020820190508181036000830152612bd78161280c565b9050919050565b6000608082019050612bf36000830184612872565b92915050565b6000602082019050612c0e60008301846128d6565b92915050565b6000604051905081810181811067ffffffffffffffff82111715612c3b57612c3a612fa8565b5b8060405250919050565b600067ffffffffffffffff821115612c6057612c5f612fa8565b5b601f19601f8301169050602081019050919050565b6000819050602082019050919050565b600081519050919050565b600081519050919050565b600081519050919050565b6000602082019050919050565b600082825260208201905092915050565b600082825260208201905092915050565b600082825260208201905092915050565b600081905092915050565b6000612cfc82612e16565b9150612d0783612e16565b9250827fffffffffffffffffffffffffffffffffffffffffffffffffffffffffffffffff03821115612d3c57612d3b612f1b565b5b828201905092915050565b6000612d5282612e16565b9150612d5d83612e16565b925082612d6d57612d6c612f4a565b5b828204905092915050565b6000612d8382612e16565b9150612d8e83612e16565b925082821015612da157612da0612f1b565b5b828203905092915050565b6000612db782612df6565b9050919050565b60008115159050919050565b60007fffffffff0000000000000000000000000000000000000000000000000000000082169050919050565b600073ffffffffffffffffffffffffffffffffffffffff82169050919050565b6000819050919050565b600060ff82169050919050565b82818337600083830152505050565b60005b83811015612e5a578082015181840152602081019050612e3f565b83811115612e69576000848401525b50505050565b60006002820490506001821680612e8757607f821691505b60208210811415612e9b57612e9a612f79565b5b50919050565b6000612eac82612e16565b91507fffffffffffffffffffffffffffffffffffffffffffffffffffffffffffffffff821415612edf57612ede612f1b565b5b600182019050919050565b6000612ef582612e16565b9150612f0083612e16565b925082612f1057612f0f612f4a565b5b828206905092915050565b7f4e487b7100000000000000000000000000000000000000000000000000000000600052601160045260246000fd5b7f4e487b7100000000000000000000000000000000000000000000000000000000600052601260045260246000fd5b7f4e487b7100000000000000000000000000000000000000000000000000000000600052602260045260246000fd5b7f4e487b7100000000000000000000000000000000000000000000000000000000600052604160045260246000fd5b6000601f19601f8301169050919050565b612ff181612dac565b8114612ffc57600080fd5b50565b61300881612dbe565b811461301357600080fd5b50565b61301f81612dca565b811461302a57600080fd5b50565b61303681612e16565b811461304157600080fd5b50565b61304d81612e20565b811461305857600080fd5b5056fea26469706673582212205a71f37c962826322503a5ded56bed2d8570e044c1c236b60434d486862bb4be64736f6c63430008000033",
  "immutableReferences": {},
  "source": "//SPDX-License-Identifier: <SPDX-License>\r\npragma solidity 0.8.0;\r\n\r\nimport \"../node_modules/@openzeppelin/contracts/token/ERC721/ERC721.sol\";\r\nimport \"../node_modules/@openzeppelin/contracts/access/Ownable.sol\";\r\n\r\ncontract Token is ERC721, Ownable {\r\n\r\n    struct Pet {\r\n        uint8 damage;\r\n        uint8 magic;\r\n        uint256 lastMeal;\r\n        uint256 endurance;\r\n    }\r\n\r\n    uint256 nextId = 0;\r\n\r\n    mapping(uint256 => Pet) private _tokenDetails; //id represents pet \r\n    constructor(string memory name, string memory symbol) ERC721(name,symbol){\r\n\r\n    }\r\n\r\n    function getTokenDetails(uint256 tokenId) public view returns (Pet memory){\r\n        return _tokenDetails[tokenId];\r\n    }\r\n\r\n    function mint(uint8 damage, uint8 magic, uint256 endurance) public onlyOwner {\r\n        _tokenDetails[nextId] = Pet(damage, magic, block.timestamp, endurance);\r\n        _safeMint(msg.sender, nextId); //only mint token id\r\n        nextId++;\r\n    }\r\n\r\n    function feed(uint256 tokenId) public {\r\n        Pet storage pet = _tokenDetails[tokenId];\r\n        require(pet.lastMeal +pet.endurance >block.timestamp);\r\n        pet.lastMeal = block.timestamp;\r\n    }\r\n\r\n    function getAllTokensForUser(address user) public view returns (uint256[] memory){\r\n        uint256 tokenCount = balanceOf(user);\r\n        if (tokenCount == 0){\r\n            return new uint256[](0);\r\n        }\r\n        else {\r\n            uint256[] memory result = new uint256[](tokenCount);\r\n            uint256 totalPets = nextId;\r\n            uint256 resultIndex =0;\r\n            uint256 i;\r\n            for (i=0;i<totalPets; i++){\r\n                if  (ownerOf(i) == user){\r\n                    result[resultIndex]=i;\r\n                    resultIndex++;\r\n                }\r\n            }\r\n            return result;\r\n        }\r\n    }\r\n\r\n    function _beforeTokenTransfer(address from,address to,uint256 tokenId) internal virtual override{\r\n        Pet storage pet = _tokenDetails[tokenId];\r\n        require(pet.lastMeal +pet.endurance >block.timestamp); //make sure pet still alive, then can be transfered\r\n    }\r\n}",
  "sourcePath": "D://Exploration/airline-nft-game/contracts/Token.sol",
  "compiler": {
    "name": "solc",
    "version": "0.8.0+commit.c7dfd78e.Emscripten.clang"
  },
  "schemaVersion": "3.3.4",
  "updatedAt": "2021-10-16T08:24:34.658Z",
  "networkType": "ethereum",
  "devdoc": {
    "kind": "dev",
    "methods": {
      "approve(address,uint256)": {
        "details": "See {IERC721-approve}."
      },
      "balanceOf(address)": {
        "details": "See {IERC721-balanceOf}."
      },
      "getApproved(uint256)": {
        "details": "See {IERC721-getApproved}."
      },
      "isApprovedForAll(address,address)": {
        "details": "See {IERC721-isApprovedForAll}."
      },
      "name()": {
        "details": "See {IERC721Metadata-name}."
      },
      "owner()": {
        "details": "Returns the address of the current owner."
      },
      "ownerOf(uint256)": {
        "details": "See {IERC721-ownerOf}."
      },
      "renounceOwnership()": {
        "details": "Leaves the contract without owner. It will not be possible to call `onlyOwner` functions anymore. Can only be called by the current owner. NOTE: Renouncing ownership will leave the contract without an owner, thereby removing any functionality that is only available to the owner."
      },
      "safeTransferFrom(address,address,uint256)": {
        "details": "See {IERC721-safeTransferFrom}."
      },
      "safeTransferFrom(address,address,uint256,bytes)": {
        "details": "See {IERC721-safeTransferFrom}."
      },
      "setApprovalForAll(address,bool)": {
        "details": "See {IERC721-setApprovalForAll}."
      },
      "supportsInterface(bytes4)": {
        "details": "See {IERC165-supportsInterface}."
      },
      "symbol()": {
        "details": "See {IERC721Metadata-symbol}."
      },
      "tokenURI(uint256)": {
        "details": "See {IERC721Metadata-tokenURI}."
      },
      "transferFrom(address,address,uint256)": {
        "details": "See {IERC721-transferFrom}."
      },
      "transferOwnership(address)": {
        "details": "Transfers ownership of the contract to a new account (`newOwner`). Can only be called by the current owner."
      }
    },
    "version": 1
  },
  "userdoc": {
    "kind": "user",
    "methods": {},
    "version": 1
  }
}